:10000000C1C10000F0C10000EEC10000ECC1000061
:10001000EAC10000E8C10000E6C10000E4C1000040
:10002000E2C10000E0C10000DEC10000DCC1000050
:10003000DAC10000D8C10000D6C10000D4C1000060
:10004000D2C10000D0C10000CEC10000CCC1000070
:10005000CAC10000C8C10000C6C100000C94BC0B9E
:10006000C2C100000C94860B0C945C0BBCC1000058
:10007000BAC10000B8C10000B6C10000B4C10000A0
:10008000B2C10000B0C10000AEC10000ACC10000B0
:10009000AAC10000A8C10000A6C100000C94060C73
:1000A000A2C10000A0C100009EC100009CC10000D0
:1000B0009AC1000098C1000096C1000094C10000E0
:1000C00092C1000090C100008EC100008CC10000F0
:1000D0008AC1000088C1000086C1000084C1000000
:1000E00082C1000007634236B79BD8A71A39685609
:1000F00018AEBAAB558C1D3CB7CC5763BD6DEDFD4A
:10010000753EF6177231BF000000803F0800000006
:10011000BE922449123EABAAAA2ABECDCCCC4C3EFC
:1001200000000080BEABAAAAAA3E00000000BF00EB
:100130000000803F0000000000084178D3BB4387E7
:10014000D1133D190E3CC3BD4282AD2B3E68EC82FB
:1001500076BED98FE1A93E4C80EFFFBE01C4FF7F80
:100160003F000000000000407A10F35A00A0724ED9
:1001700018090010A5D4E80000E87648170000E44C
:100180000B54020000CA9A3B000000E1F505000094
:1001900080969800000040420F000000A0860100F9
:1001A0000000102700000000E803000000006400C9
:1001B000000000000A000000000001000000000034
:1001C0002C76D888DC674F0823DFC1DFAE59E1B158
:1001D000B796E5E3E453C63AE651997696E8E6C267
:1001E0008426EB898C9B62ED407C6FFCEFBC9C9F6E
:1001F00040F2BAA56FA5F490055A2AF75C936B6C90
:10020000F9676DC11BFCE0E40D47FEF520E6B50083
:10021000D0ED902E0300943577050080841E0800F1
:1002200000204E0A000000C80C333333330F986EA1
:1002300012831141EF8D2114893BE65516CFFEE65E
:10024000DB18D1844B381BF77C1D901DA4BBE42424
:10025000203284725E228100C9F124ECA1E53D27A1
:1002600000002100240027002A002D003000330068
:1002700001010000040107010A010000220025001D
:1002800028002B002E00310034000201000005017F
:1002900008010B01000020002300260029002C008B
:1002A0002F003200000100000301060109010505CD
:1002B0000505070508080808020202020A0A0808DC
:1002C000040404040101010101010101030303030A
:1002D00003030303040707070C0C0C0C0C0C0C0C99
:1002E0000202020206060606060606060B0B0B0BAA
:1002F0000B0B0B0B010210202008081020401020CF
:1003000040800201020108040201010204081020D9
:1003100040808040201008040201800402018040D7
:100320002010080402010804020101020408102040
:100330004080010204081020408000000A0B0209DE
:100340000C0D0E080703040100000000000000006F
:10035000000000000000000000000000000000009D
:10036000000000000000121110000000000000005A
:10037000000000000000000000000000000000007D
:10038000290D371111241FBECFEFD1E2DEBFCDBF43
:1003900000E00CBF24E0ACE8B2E001C01D92AC3A32
:1003A000B207E1F712E0A0E0B2E0E2E2F3E300E03E
:1003B0000BBF02C007900D92AC38B107D9F711E01E
:1003C000C1ECD1E000E006C021970109802FFE01B9
:1003D0000E946117C03CD10780E00807A9F70E947E
:1003E000C00D0C9480190CCE982F2091500381E001
:1003F000213208F043C080912C038111FCCF809101
:100400004F0332E030932C0390932B039FEF909394
:100410002A031092290320932803AFE2B3E0E8E017
:10042000F3E090E0291331C0109207039091070385
:10043000880F892B8093070380910603813049F54B
:1004400010920603809107038093BB008091BC004B
:1004500083FDF8CF85EC8093BC0080912C03823023
:10046000E1F380912A038F3FB1F080912A0380321B
:10047000A1F080912A03803391F084E010922E0342
:100480001092500310922D0308953D9131939F5F78
:10049000C9CF85EEE0CF80E0F1CF82E0EFCF83E0FF
:1004A000EDCF8091E4029091E502891B990B0895AC
:1004B0000895AF92BF92CF92DF92EF92FF920F9387
:1004C0001F93CF93DF936C017B018B01040F151FEA
:1004D000EB015E01AE18BF08C017D10759F0699152
:1004E000D601ED91FC910190F081E02DC6011995A6
:1004F000892B79F7C501DF91CF911F910F91FF9063
:10050000EF90DF90CF90BF90AF9008950895089539
:100510000895FC01538D448D252F30E0842F90E009
:10052000821B930B541710F0CF96089501970895EE
:10053000FC01918D828D981761F0A28DAE0FBF2FB7
:10054000B11D5D968C91928D9F5F9F73928F90E00D
:1005500008958FEF9FEF0895FC01918D828D98177C
:1005600031F0828DE80FF11D858D90E008958FEFB9
:100570009FEF0895FC01918D228D892F90E0805C82
:100580009F4F821B91098F739927089581E593E00E
:10059000F1DF21E0892B09F420E0822F0895FC018E
:1005A000A48DA80FB92FB11DA35ABF4F2C91848DD4
:1005B00090E001968F739927848FA689B7892C9331
:1005C000A089B1898C91837080648C93938D848D84
:1005D000981306C00288F389E02D80818F7D808387
:1005E0000895EF92FF920F931F93CF93DF93EC0147
:1005F00081E0888F9B8D8C8D98131AC0E889F989CA
:10060000808185FF15C09FB7F894EE89FF896083CC
:10061000E889F98980818370806480839FBF81E04D
:1006200090E0DF91CF911F910F91FF90EF9008958F
:10063000F62E0B8D10E00F5F1F4F0F731127E02E6A
:100640008C8D8E110BC00FB607FCFACFE889F989A3
:10065000808185FFF5CFCE01A2DFF2CFEB8DEC0FCD
:10066000FD2FF11DE35AFF4FF0829FB7F8940B8FD7
:10067000EA89FB8980818062D0CFCF93DF93EC0140
:10068000888D8823B1F0AA89BB89E889F9898C9182
:1006900085FD03C0808186FD0CC00FB607FCF7CF37
:1006A0008C9185FFF2CF808185FFEDCFCE0177DF82
:1006B000EACFDF91CF91089580E090E0892B21F07F
:1006C00065DF81110E94000080E090E0892B49F0F5
:1006D00080E090E0892B29F00E94000081110E94A7
:1006E000000080E090E0892B49F080E090E0892BC9
:1006F00029F00E94000081110E94000080E090E03B
:10070000892B49F080E090E0892B29F00E940000BD
:1007100081110C94000008958150823108F05AC074
:10072000E82FF0E08827E856FC4F8F4F0C946117B4
:10073000B803BC03AA03B003B403EA03BF03C503B1
:10074000C903CF03D303D703DD03E103EA03E503C2
:10075000EB03EF03809180008F77809380000895F2
:10076000809180008F7DF9CF80918000877FF5CFC9
:1007700084B58F7784BD089584B58F7DFBCF80913C
:10078000B0008F778093B00008958091B0008F7D86
:10079000F9CF809190008F77809390000895809199
:1007A00090008F7DF9CF80919000877FF5CF809169
:1007B000A0008F778093A00008958091A0008F7D86
:1007C000F9CF8091A000877FF5CF809120018F77AE
:1007D000809320010895809120018F7DF9CF809131
:1007E0002001877FF5CFCF93DF93282F30E0F901E9
:1007F000E65CFC4F8491F901EC50FD4FD491F90176
:10080000E255FD4FC491CC2399F0811185DFEC2F87
:10081000F0E0EE0FFF1FEC56FD4FA591B491EC9167
:10082000ED2381E090E009F480E0DF91CF9108951D
:1008300080E090E0FACF1F93CF93DF93282F30E032
:10084000F901E65CFC4F8491F901EC50FD4FD49125
:10085000F901E255FD4FC491CC23A1F0162F81116F
:100860005BDFEC2FF0E0EE0FFF1FE658FD4FA59188
:10087000B4918FB7F894EC91111108C0D095DE2394
:10088000DC938FBFDF91CF911F910895DE2BF8CFBE
:10089000CF93DF9390E0FC01EC50FD4F2491825503
:1008A0009D4FFC0184918823D1F090E0880F991F1F
:1008B000FC01E05AFD4FA591B491FC01E658FD4FB3
:1008C000C591D49161110EC09FB7F8948C91E22F1D
:1008D000E0958E238C932881E223E8839FBFDF91EC
:1008E000CF9108958FB7F894EC91E22BEC938FBFE2
:1008F000F6CF3FB7F8948091D4029091D502A091A1
:10090000D602B091D70226B5A89B05C02F3F19F09B
:100910000196A11DB11D3FBFBA2FA92F982F88277F
:10092000BC01CD01620F711D811D911D42E0660F5A
:10093000771F881F991F4A95D1F708958F929F922C
:10094000AF92BF92CF92DF92EF92FF926B017C0148
:10095000D0DF4B015C01C114D104E104F104B1F01A
:10096000C8DF681979098A099B09683E73408105C7
:10097000910588F321E0C21AD108E108F10888EE58
:10098000880E83E0981EA11CB11CE5CFFF90EF906C
:10099000DF90CF90BF90AF909F908F9008952FB72A
:1009A000F8946091D0027091D1028091D20290911E
:1009B000D3022FBF089585ED8093BC008091BC00C9
:1009C00084FDFCCF10922C0308952091AC02260FD9
:1009D0003327331F21323105ECF420912C03FC0125
:1009E00090E080E0243069F082E00895A091AC02AC
:1009F0002191AC0144575D4FA40FB52FB11D2C932D
:100A00000196861798F38091AC02680F6093AC0250
:100A100080E0089581E00895E091E5028091E4028C
:100A2000E81730F4F0E0EA51FD4F808190E008953E
:100A30008FEF9FEF08959091E5028091E4022FEFF0
:100A40003FEF981748F4E92FF0E0EA51FD4F20817D
:100A500030E09F5F9093E502C9010895CF92DF9245
:100A6000EF92FF920F931F93CF93DF937C01CB0103
:100A70008A0120912D03222389F0EB016B01C40E22
:100A8000D51ECC15DD0561F06991D701ED91FC9182
:100A90000190F081E02DC7011995F3CF642F95DF08
:100AA000C801DF91CF911F910F91FF90EF90DF90E0
:100AB000CF900895CF93DF931F92CDB7DEB76983B0
:100AC00020912D032223F9F020915003203258F079
:100AD00021E030E0FC013383228390E080E00F903E
:100AE000DF91CF91089580912E03E82FF0E0E15D32
:100AF000FC4F998190838F5F80932E0380935003E6
:100B000081E090E0ECCF61E0CE0101965EDFF8CFAE
:100B1000CF93C82F80918A0491E090932D03809306
:100B20004F0310922E031092500364EF84E394E07D
:100B3000C1DF6C2F84E394E0BDDF81E0CF9154CC22
:100B400090E080E008950F931F93CF93DF93D62F0B
:100B50008A0190918A04C1E0C0932D0390934F03C2
:100B600010922E0310925003682F84E394E0A2DFCA
:100B700081E03ADC80918A04C0932D0380934F0377
:100B800010922E031092500390912C039111FCCFE0
:100B900091E090932C0390932B032FEF20932A0343
:100BA000109229032D0F209328039093070390910F
:100BB0000703880F892B80930703809106038130F8
:100BC00081F510920603809107038093BB0080910A
:100BD000BC0083FDF8CF85EC8093BC0080912C0392
:100BE0008130E1F3809129038D1710F4D09129030E
:100BF000A8E0B3E0E6EEF2E0C0E0CD1314C010923E
:100C0000E502C093E402D0E08091E502C81779F0D4
:100C100084E394E010DFF801ED0FF11D8083DF5FC6
:100C2000F3CF85EED9CF8D918193CF5FE6CF81E071
:100C3000DF91CF911F910F91D7CBCF92DF92EF929F
:100C4000FF92CF93DF938EE263DF65E070E080E098
:100C500090E074DE4BE854E062E086EF74DFCCE6AF
:100C6000D4E02F8D38A132272327322750E040E0EF
:100C70008C899D89281B390B41095109AA89BB8997
:100C80000E94C9146B017C018FE0F594E794D7941E
:100C9000C7948A95D1F76C857D85072E000C880B4B
:100CA000990B2BE0660F771F881F991F2A95D1F7A4
:100CB0002E853F85032E000C440B550B2C0D3D1D3E
:100CC0004E1D5F1D0E944517C20ED31EE41EF51E69
:100CD000CE8ADF8AE88EF98EDF91CF91FF90EF9078
:100CE000DF90CF9008954F925F926F927F928F9294
:100CF0009F92AF92BF92CF92DF92EF92FF92CF93EB
:100D0000DF9300D000D0CDB7DEB79E838D8395DF13
:100D100080918E048295880F880F807C8C5CF8DE31
:100D2000E0918E04F0918F04EE0FFF1FE057FB4F10
:100D300060817181072E000C880B990BFFDD4BE859
:100D400054E063E086EFFFDEE0918E04F0918F04C3
:100D500040908204509083046090840470908504D5
:100D600020EA421A2FE0520A61087108A301920199
:100D7000C301B2010E9498144B015C01BCE0B59420
:100D8000A79497948794BA95D1F7A0917004B091E5
:100D900071040E9469176B017C018DE0F594E79462
:100DA000D794C7948A95D1F7A0917204B091730437
:100DB000A50194010E9469179C01552737FD5095A4
:100DC000452F2C0D3D1D4E1D5F1D2E5F3F4F4F4F7C
:100DD0005F4F62E055954795379527956A95D1F70E
:100DE00030584F4F5F4FA0917C04B0917D040E941A
:100DF000C9149B01AC017FE056954795379527951F
:100E00007A95D1F729833A834B835C8380918B0455
:100E1000C0908C04D12CF12CE12CFE2CED2CDC2C80
:100E2000CC24E82A80918D04C82A88E090E08E1BAB
:100E30009F0B04C0F594E794D794C7948A95D2F792
:100E4000A0917404B0917504A50194010E946917E2
:100E50004B015C01BBE0B594A79497948794BA9535
:100E6000D1F7A0916E04B0916F04A30192010E948A
:100E700069172BE095958795779567952A95D1F712
:100E8000860E971EA81EB91E80916C0490916D0469
:100E9000092E000CAA0BBB0B32E0880F991FAA1F6A
:100EA000BB1F3A95D1F7880D991DAA1DBB1D4C019A
:100EB0005D010E2E04C0880C991CAA1CBB1C0A9450
:100EC000D2F732E0830E911CA11CB11C42E0B59414
:100ED000A794979487944A95D1F7A701960128196A
:100EE00039094A095B0960E573EC80E090E004C0D1
:100EF0009595879577956795EA95D2F70E9498140E
:100F000097FD5CC0660F771F881F991F29813A8162
:100F10004B815C810E94A71469017A019927F7FC33
:100F20009A958F2D7E2D6D2D9B01AC010E949814FA
:100F30009B01AC01AEEDBBE00E94C9144B015C010A
:100F4000A3E4B3EEA70196010E946B179C015527FD
:100F500037FD5095452F4501BB2497FCB094AB2C31
:100F6000280D391D4A1D5B1D2153314F4F4F5F4FD7
:100F700074E055954795379527957A95D1F7C20E28
:100F8000D31EE41EF51EED81FE81C082D182E28275
:100F9000F38226960FB6F894DEBF0FBECDBFDF9169
:100FA000CF91FF90EF90DF90CF90BF90AF909F9048
:100FB0008F907F906F905F904F90089529813A8134
:100FC0004B815C810E94A71469017A01CC0CDD1C65
:100FD000EE1CFF1CA3CFEF92FF920F931F93CF93B2
:100FE000DF93DDDC00914F041091500420915104F7
:100FF00030915204601771078207930740F41092F2
:101000004F041092500410925104109252042091F7
:101010005304211119C000914F04109150042091E4
:10102000510430915204601B710B820B930B603D95
:1010300077408105910540F481E0DF91CF911F91C8
:101040000F91FF90EF90089510925304A8DC6093E5
:101050004F04709350048093510490935204109263
:101060004A041092490410924804109247041092C6
:10107000460461E080914C04DEDB6AEF70E080E0C2
:1010800090E05CDC61E080914C0402DC60E08091E7
:101090004C04D1DB64E170E080E090E04FDCF89438
:1010A00061E080914C04C7DB8BE990E00197F1F798
:1010B00060E080914C04ECDB10E081E0C0E0D0E027
:1010C000E82EF12C80914C048EDB8E159F0519F4CF
:1010D000DF5FDF3FB9F780914C0485DBDF3FC1F074
:1010E000C43098F0C0FD11C0E12FE695E695E69575
:1010F000F0E0EA5BFB4F9081990F908320914E04C2
:101100002D1710F4916090831F5FCF5FC535B9F63E
:1011100078941832B8F040914A04209146048091A6
:101120004704280F3327331F80914804280F311DAF
:1011300080914904820F932F911D99274817190612
:1011400009F47ACF80E079CFCF93DF93EC0160E0B0
:101150008E8171DB61E08E816EDB60E08E816BDB06
:101160008BE891E00197F1F7DF91CF910895CF924D
:10117000DF92EF92FF920F931F93CF93DF936C0157
:101180007C0187E0E80EF11CD0E0C0E0062F10E003
:10119000B8010C2E02C0759567950A94E2F761704C
:1011A000F70181917F0147DB2196C430D10581F79A
:1011B000C601DF91CF911F910F91FF90EF90DF90CB
:1011C000CF90C2CFCF92DF92EF92FF920F931F93F7
:1011D000CF93DF93EC01F62E642F8C812CDB8D8175
:1011E0008F3F11F060E027DB0F2D10E08F8584FF2B
:1011F00023C06E0187E0C80ED11CF12CE12CB80190
:101200000E2C02C0759567950A94E2F76170F6019D
:1012100081916F0110DBFFEFEF1AFF0A88E0E816FB
:10122000F10469F7CE01DF91CF911F910F91FF90EB
:10123000EF90DF90CF9088CFB80184E075956795E7
:101240008A95E1F7CE0193DF6F2DCE01DF91CF912B
:101250001F910F91FF90EF90DF90CF9088CF40E0EB
:10126000682F84E594E0AECFCF93DF93823029F4EA
:101270009091630498609093630480936704109244
:10128000680480E48093690480E180936A0480E5C7
:1012900080936B0461E080915804FADA80915904DC
:1012A0008F3F11F061E0F4DA61E080915A04F0DAE6
:1012B000C4E5D4E09E01245534408091630484FD4C
:1012C0000AC084E090E02196281739073CF461E0D9
:1012D0008E81DEDAEFCF88E090E0F5CF8BE39DE002
:1012E0000197F1F760E080915804A5DA60E0809101
:1012F0005A04A1DA809159048F3F11F060E09BDA23
:101300008091630484FD31C063E084E594E02FDFC5
:10131000CBE4D6E4CE010197F1F763E084E594E0F5
:1013200026DF2197F1F763E084E594E020DF83E591
:1013300092E00197F1F762E084E594E018DF809194
:10134000630480628CDF84E0809364048CE087DF38
:1013500081E085DF8BE39FE10197F1F782E08093E5
:10136000650486E0DF91CF917ACF806278DF8BE4ED
:1013700096E40197F1F780916304806270DF83E562
:1013800092E00197F1F780916304806268DFD7CF24
:1013900090916704691710F06FEF690FE62FF0E086
:1013A000EC5AFB4F9489890F806859CF41E00ADFDE
:1013B00081E090E008950F931F93CF93DF93EC01AA
:1013C00088819981009759F02A813B812617370738
:1013D00030F081E0DF91CF911F910F9108958B0143
:1013E0006F5F7F4F0E949418009759F0998388830C
:1013F0001B830A832C813D81232B59F7FC0110822A
:10140000E8CF80E0E7CFCF93DF93EC01888199812B
:10141000009711F00E940B18198218821D821C82FD
:101420001B821A82DF91CF910895EF92FF920F9362
:101430001F93CF93DF93EC017B018A01BA01BBDFDD
:1014400081110AC0CE01DFDFCE01DF91CF911F9164
:101450000F91FF90EF9008951D830C83B701888151
:1014600099810E947919F0CFFC01808191810C94BF
:101470000B18FC01118210821382128215821482D1
:10148000FB0101900020E9F73197AF01461B570B94
:10149000CCCFFB0101900020E9F73197AF01461B4B
:1014A000570BDC01ED91FC910280F381E02D199442
:1014B0008F929F92AF92BF92CF92DF92EF92FF9264
:1014C0000F931F93CF93DF93CDB7DEB7A7970FB6D8
:1014D000F894DEBF0FBECDBF4B015C018A017901DC
:1014E00081E0BDDE8BE39FE10197F1F760E081E0F1
:1014F0004FDFF801448155816081718184E594E07A
:101500000E9459021BA21AA21DA21CA21FA21EA267
:101510008E010F5F1F4F22E044E0C501B401AAD63F
:10152000009709F4A4C0FC0101900020E9F731976D
:10153000AF01481B590BBC01CE01829676DF80912A
:10154000400490914104009709F497C06AA17BA1DF
:101550006115710509F48FC0409142045091430414
:101560002EA13FA14217530708F485C00E947919A4
:101570008EA19FA190934504809344041FA21EA2B4
:10158000CE01829671DF909144048EE0891BF701B1
:10159000948161E0891BFCDE1A8219821C821B8205
:1015A0001E821D8260914004709141046115710595
:1015B00039F04091440450914504CE01019635DF45
:1015C0000D811E810F5F1F4FB801CE010196F3DE22
:1015D000882309F469C029813A818D819E816EE555
:1015E00072E0820F931F0E9479191E830D83F70109
:1015F000C080D180C114D10409F45AC0048115817E
:1016000001151105B1F08D819E81080F191FB801D8
:10161000CE010196D0DE882309F44AC029813A819F
:101620008D819E81B601820F931F0E9479191E83BE
:101630000D834D815E8169817A8184E594E00E9409
:101640005902CE01019610DFA7960FB6F894DEBFBF
:101650000FBECDBFDF91CF911F910F91FF90EF9003
:10166000DF90CF90BF90AF909F908F900895CE0164
:101670008296C9DE64CF0E940B188AA19BA1909329
:101680004104809340048CA19DA1909343048093D6
:1016900042048EA19FA190934504809344041BA211
:1016A0001AA21DA21CA26ACFCE010196ACDE9FCF6A
:1016B000CE010196A8DEBDCF1F920F920FB60F92FA
:1016C00011240BB60F922F933F934F935F936F9319
:1016D0007F938F939F93AF93BF93EF93FF9381E596
:1016E00093E00E94CF02FF91EF91BF91AF919F9144
:1016F0008F917F916F915F914F913F912F910F90BB
:101700000BBE0F900FBE0F901F9018951F920F9257
:101710000FB60F9211240BB60F922F938F939F93B6
:10172000EF93FF93E0916103F09162038081E09178
:101730006703F091680382FD1DC0908180916A0368
:101740008F5F8F7320916B03821741F0E0916A03E2
:10175000F0E0EF5AFC4F958F80936A03FF91EF9171
:101760009F918F912F910F900BBE0F900FBE0F90F6
:101770001F9018958081F2CF1F920F920FB60F9293
:1017800011242F933F938F939F93AF93BF93809197
:10179000D0029091D102A091D202B091D3023091A7
:1017A000CF0223E0230F2D3758F50196A11DB11D5F
:1017B0002093CF028093D0029093D102A093D202C3
:1017C000B093D3028091D4029091D502A091D60219
:1017D000B091D7020196A11DB11D8093D4029093C0
:1017E000D502A093D602B093D702BF91AF919F913B
:1017F0008F913F912F910F900FBE0F901F901895D2
:1018000026E8230F0296A11DB11DD2CF1F920F9281
:101810000FB60F9211240BB60F922F933F934F9355
:101820005F936F937F938F939F93AF93BF93EF9348
:10183000FF938091B900887F803609F44CC008F08E
:101840003FC0883209F4A8C028F5803109F49CC053
:10185000C8F4882309F4FAC0883009F495C0FF91D0
:10186000EF91BF91AF919F918F917F916F915F9118
:101870004F913F912F910F900BBE0F900FBE0F9085
:101880001F901895883109F487C0803241F7809302
:101890002A0314C0803409F49CC040F48033B9F3A7
:1018A0008833E9F680932A0385ECAFC0803509F4CC
:1018B00084C0883509F495C0883489F67CD8CFCFA8
:1018C000883909F48CC038F5883729F050F4883607
:1018D00011F0803721F683E080932C031092CE0222
:1018E00057C0883809F47BC0803919F0803809F076
:1018F000B6CF8091CE02803208F071C0E091CE0266
:1019000081E08E0F8093CE028091BB00F0E0E25523
:10191000FD4F80833DC0803B39F0E0F4803A09F40C
:1019200079C0883A09F09BCF84E080932C03109211
:10193000AD021092AC02E091DA02F091DB0219954F
:101940008091AC0281110FC081E08093AC021092B3
:101950008C0209C0803C09F4A7CF883C09F4A4CFCD
:10196000883B09F07CCFE091AD0281E08E0F80933F
:10197000AD02F0E0E457FD4F80818093BB00909171
:10198000AD028091AC0229C0809107038093BB0017
:1019900085EC8093BC0063CF90912903809128034C
:1019A000981758F5E091290381E08E0F8093290361
:1019B000F0E0E85FFC4F8081E9CFE091290381E00E
:1019C0008E0F809329038091BB00F0E0E85FFC4F0D
:1019D000808390912903809128039817C8F285E8A5
:1019E000D8CFE091290381E08E0F80932903809165
:1019F000BB00F0E0E85FFC4F808380912B038111F6
:101A00005DCF81E08093060384EA8093BC0010924E
:101A10002C0325CF85EC8093BC0010922C03809181
:101A2000CE02803230F4E091CE02F0E0E255FD4F7C
:101A300010826091CE0270E0E091D802F091D9025C
:101A40008EEA92E019951092CE0209CF10922A03E5
:101A500035CFCF93E1E5F3E01382128288EE93E075
:101A6000A0E0B0E084839583A683B7832AE032E0C8
:101A70003183208325EC30E03587248724EC30E067
:101A80003787268720EC30E0318B208B21EC30E04B
:101A9000338B228B22EC30E0358B248B26EC30E02C
:101AA000378B268B118E128E138E148EEEEEF3E092
:101AB0001682178210861186128613861486158662
:101AC00016861786108A118A128A138A148A158A32
:101AD000E4E3F4E01382128284839583A683B783C0
:101AE0008CE192E091838083ECE6F4E087E7868FD7
:101AF00085E090E095A384A388E090E097A386A377
:101B00008EE090E091A780A78AE190E093A782A75A
:101B100014A615A616A617A610AA11AA12AA13AAE9
:101B2000128E138E148E158EE4E5F4E01382128269
:101B30008EE292E09183808388E084838FEF8583B7
:101B400089E0868384E0878385E08087C6E0C1875B
:101B500087E082871386148615861686178681E0AD
:101B600083DBE6E4F4E08EE3868386E18783C08747
:101B700081E0858766E472E080E494E0CF9179CCDF
:101B8000CF93DF93CDB7DEB72C970FB6F894DEBFB7
:101B90000FBECDBF789484B5826084BD84B581606A
:101BA00084BD85B5826085BD85B5816085BD809128
:101BB0006E00816080936E001092810080918100A0
:101BC0008260809381008091810081608093810098
:101BD000809180008160809380008091B10084605A
:101BE0008093B1008091B00081608093B0008091BB
:101BF0009100826080939100809191008160809338
:101C00009100809190008160809390008091A1006C
:101C100082608093A1008091A10081608093A100E7
:101C20008091A00081608093A0008091210182605A
:101C30008093210180912101816080932101809115
:101C4000200181608093200180917A0084608093DC
:101C50007A0080917A00826080937A0080917A0085
:101C6000816080937A0080917A00806880937A0006
:101C70001092C1001092300410923104109232047C
:101C8000109233041092F0031092F1031092F203B9
:101C90001092F3030E94CF046B017C014B015C01A5
:101CA00088EB880E8BE0981EA11CB11C0E94CF040B
:101CB0006C157D058E059F0528F086169706A806EB
:101CC000B906A0F768EE73E080E090E00E949E0401
:101CD000E0916103F091620382E08083E0915D0313
:101CE000F0915E031082E0915F03F091600380E168
:101CF000808310926903E0916503F091660386E0AA
:101D00008083E0916303F09164038081806180832C
:101D1000E0916303F0916403808188608083E091A7
:101D20006303F0916403808180688083E0916303A2
:101D3000F091640380818F7D80830E94CF04609343
:101D4000F0037093F1038093F2039093F30366E33F
:101D500072E081E593E09DDB0E94CF046B017C0182
:101D60004B015C018AE0880E911CA11CB11C0E94F1
:101D7000CF046C157D058E059F0528F08616970605
:101D8000A806B906A0F711E01093040482E06CDA0B
:101D900060E080E0FDDA67E472E084E594E079DBFE
:101DA00061E080E0F5DA64E572E084E594E071DBFF
:101DB00060E080914C040E94480461E080914C04F2
:101DC0000E941B0410924F04109250041092510470
:101DD0001092520460ED77E080E090E00E949E0453
:101DE0001092E5021092E40210922E03109250031A
:101DF00010922C0310932B031092060361E084E1F0
:101E00000E941B0461E085E10E941B048091B900DF
:101E10008E7F8093B9008091B9008D7F8093B90047
:101E200088E48093B80085E48093BC0086E892E063
:101E30009093DB028093DA0287E892E09093D902D4
:101E40008093D8024BE854E062E08AEA0E94A3053E
:101E500080918B0490918C049827892798279093E0
:101E60006D0480936C044BE854E062E08CEA0E94BD
:101E7000A30580918B0490918C049827892798273B
:101E800090936F0480936E044BE854E062E08EEA16
:101E90000E94A30580918B0490918C049827892738
:101EA000982790937104809370044BE854E062E0AB
:101EB00080EB0E94A30580918B0490918C0498275D
:101EC0008927982790937D0480937C044BE854E005
:101ED00062E082EB0E94A30580918B0490918C04B8
:101EE00098278927982790937F0480937E044BE856
:101EF00054E062E084EB0E94A30580918B049091F2
:101F00008C049827892798279093810480938004D4
:101F10004BE854E062E086EB0E94A30580918B04BD
:101F200090918C0498278927982790937304809325
:101F300072044BE854E062E088EB0E94A3058091B4
:101F40008B0490918C049827892798279093750487
:101F5000809374044BE854E062E08AEB0E94A3058E
:101F600080918B0490918C049827892798279093CF
:101F70007704809376044BE854E062E08CEB0E9497
:101F8000A30580918B0490918C049827892798272A
:101F900090937904809378044BE854E062E08EEBF0
:101FA0000E94A30580918B0490918C049827892727
:101FB000982790937B0480937A040E941D0681E009
:101FC00090E090938F0480938E041092A40410925A
:101FD000A5041092A6041092A704CE0101960E94B7
:101FE00073066091A4047091A5048091A604909159
:101FF000A704AFD320ED38E447E85AE448D59B0165
:10200000AC0160E070E080E89FE3DCD426EF38E2CA
:1020100048EA50E4D5D56B017C0169817A818B81D6
:102020009C8197D3A701960132D56B017C01609109
:102030009C0470919D0480919E0490919F0489D38B
:102040009B01AC01C701B601BED489D56093A00441
:102050007093A1048093A2049093A3040E94EB07C1
:10206000882349F080914D048B3061F020F0855138
:10207000823008F44DC0C12CD12C90ECE92E9FE7A2
:10208000F92E08C06091480470E090E080E05FD3D2
:102090006B017C01C092E002D092E102E092E20288
:1020A000F092E30260E081E073D960E672E0CE0175
:1020B0000196DFD963E672E0CE010796DAD99E0178
:1020C0002F5F3F4FAE01495F5F4FC701B601F0D9A7
:1020D000CE010796C9D9CE010196C6D968E873E149
:1020E00080E090E00E949E040E94EB07882349F064
:1020F00080914D048B3091F120F08551823008F4AD
:102100009AC0C12CD12C80ECE82E8FE7F82E2EC07F
:1021100010914804612F6F7770E090E080E019D350
:1021200020E030E040E853E44FD36B017C01609144
:10213000490470E090E080E00CD3A701960143D4FD
:1021400020E030E040E251E4A2D46B017C0117FFB3
:10215000A1CFF7FAF094F7F8F0949CCF6091460481
:1021600070E090E080E0F3D26B017C01C092E0026D
:10217000D092E102E092E202F092E3026FE672E0B6
:10218000CE01019676D961E772E0CE01079671D94A
:102190009E012F5F3F4FAE01495F5F4FC701B60100
:1021A00087D9CE01079660D9CE0101965DD968E83E
:1021B00073E180E090E00E949E048CED92E00E942A
:1021C00073066091DC027091DD028091DE029091D5
:1021D000DF02BFD22DEC3CE445E053E458D46B0160
:1021E0007C01C092E002D092E102E092E202F09221
:1021F000E3026AE772E0CE0101963BD96FE772E035
:10220000CE01079636D99E012F5F3F4FAE01495F41
:102210005F4FC701B6014CD9CE01079625D9CE0133
:10222000019622D968E873E180E090E00E949E0464
:102230000E945C0313CF6091460470E090E080E060
:1022400086D220E030E040E853E4BED26B017C014E
:102250006091470470E090E080E07BD2A701960196
:10226000B2D320E030E040E251E411D47DCF80E4ED
:1022700094E0FAC8EF920F931F93CF93DF93E80196
:1022800034E047FD34E1042E000C550B57FF03C02A
:10229000519541955109E32E022F242FAE0107D00D
:1022A000CE01DF91CF911F910F91EF9008958F9202
:1022B0009F92AF92BF92CF92DF92EF92FF920F93D5
:1022C0001F93CF93DF9300D000D000D0CDB7DEB7FF
:1022D0006A01F22EB02E102FFBE3AF2EA01608F4E9
:1022E0001BE31F5F012F27E0AE014F5F5F4F57D108
:1022F000BC018981982F9970913009F44EC09BE2FE
:10230000E1FC04C09E2D9170E0FC49C05E2D50712F
:10231000E82FE87083FF55C084E0911101C083E08D
:10232000EF2DE81B8F1508F0E0E0D6018E2F20E29C
:102330005523C9F1992329F0D6019C93C601019632
:102340006C0196012D5F3F4FE2FE33C08EE4D60153
:102350008C9391E411969C93119712968C93D901CA
:102360008E2F90E281112AC0E20FF32FF11D10820F
:102370008EEF9FEF29960FB6F894DEBF0FBECDBF4C
:10238000DF91CF911F910F91FF90EF90DF90CF9051
:10239000BF90AF909F908F9008959DE2B7CF90E24D
:1023A000B5CF2D9381508111FCCFCE0ED11CE0E032
:1023B000C1CF8EE6D6018C9391E6CCCF9D93815010
:1023C000D1CF482F447082FF3DC084E0911101C0FD
:1023D00083E08F1510F4EF2DE81BD6018E2F20E23D
:1023E000552309F1992329F0D6019C93C601019642
:1023F0006C0196012D5F3F4FE2FE1BC089E4D601C0
:102400008C938EE411968C93119786E412968C939C
:10241000D9018E2F90E2882309F4A6CF9D93815095
:10242000FACF2D9381508111FCCFCE0ED11CE0E06C
:10243000D9CF89E6D6018C938EE611968C931197AD
:1024400086E6E4CF9B0177FF02C030E020E0A1E008
:10245000B0E0911102C0B0E0A0E0F9013196AE0FFA
:10246000BF1F8B2C912CBB2009F461C05401EFEFEE
:10247000AE1ABE0AAA0DBB1DFA161B0619F014F0FF
:102480004F2D4A1B511188C0E3FC59C07601A42F7F
:10249000B0E2A1114FC0C40ED11C992309F45BC056
:1024A00040E0D6011196F60190836D01552309F4A1
:1024B00048C0012F060F9A81582F507184FF03C026
:1024C000913309F4015010160CF047C0093008F0A0
:1024D00008E0EEE2FE2E5B01A01AB108850191949E
:1024E000819491082F3F320729F4D601FC92F6011E
:1024F00031966F016217730794F1021713077CF589
:10250000DB01A21BB30BAA24A394B12CAC0EBD1EFD
:10251000AA0DBB1D11968C9121503109D60111963F
:1025200028153905F4F0F60180836D01DBCFB12C5D
:10253000A12CA0CFF701B1937F01A150AACF911197
:10254000B0CFD601942F50E302C05D93915091110A
:10255000FCCFC40ED11C40E0ACCF01E0BACF80E389
:10256000DBCF6217730731F4963388F4953311F497
:10257000552369F0F6018083FD01842F90E28111DB
:1025800008C0A40FB11D1C9290E080E0F3CE81E35F
:10259000F1CF91938150F3CF911183CF8ACF28301F
:1025A00008F027E03327DA01990F311D87FD91608C
:1025B00000966105710539F432602E5F3D9330E37A
:1025C0002A95E1F708959F3F30F080387105610545
:1025D00009F03C5F3C5F3D93913008F08068911DAD
:1025E000DF93CF931F930F93FF92EF92192F987F52
:1025F0009695E92F96959695E90FFF27E054FE4FA3
:1026000099273327EE24FF24A701E70105900894BA
:10261000079428F4360FE71EF81E491F511D660F58
:10262000771F881F991F0694A1F70590079428F437
:10263000E70EF81E491F561FC11D770F881F991FEF
:10264000661F0694A1F70590079428F4F80E491F19
:10265000561FC71FD11D880F991F661F771F06942D
:10266000A1F70590079420F4490F561FC71FD81FE4
:10267000990F661F771F881F0694A9F784911095FC
:10268000177041F0D695C79557954795F794E794FD
:102690001A95C1F7E6E6F1E0689415901591359129
:1026A0006591959105907FE27395E118F10A430BCE
:1026B000560BC90BD009C0F7E10CF11E431F561F82
:1026C000C91FD01D7EF4703311F48A95E6CFE894CB
:1026D000015030F0080F0AF40027021708F4202FE9
:1026E0002395022F7A3328F079E37D932A95E9F731
:1026F00010C07D932A9589F606949795679537952E
:1027000017951794E118F10A430B560BC90BD00922
:1027100098F023957E9173957A3308F070E37C935B
:102720002013B8F77E9170617D9330F0839571E34B
:102730007D9370E32A95E1F71124EF90FF900F91BC
:102740001F91CF91DF91992787FD90950895E89487
:1027500009C097FB3EF490958095709561957F4FE9
:102760008F4F9F4F9923A9F0F92F96E9BB27939597
:10277000F695879577956795B795F111F8CFFAF4A7
:10278000BB0F11F460FF1BC06F5F7F4F8F4F9F4FD8
:1027900016C0882311F096E911C0772321F09EE836
:1027A000872F762F05C0662371F096E8862F70E09C
:1027B00060E02AF09A95660F771F881FDAF7880F76
:1027C0009695879597F908950BD078C069D028F031
:1027D0006ED018F0952309F05AC05FC01124A2C032
:1027E0007ED0A0F3959FD1F3950F50E0551F629FC7
:1027F000F001729FBB27F00DB11D639FAA27F00D5A
:10280000B11DAA1F649F6627B00DA11D661F829F80
:102810002227B00DA11D621F739FB00DA11D621F65
:10282000839FA00D611D221F749F3327A00D611D82
:10283000231F849F600D211D822F762F6A2F112464
:102840009F5750408AF0E1F088234AF0EE0FFF1FB7
:10285000BB1F661F771F881F91505040A9F79E3FEE
:10286000510570F014C05EC05F3FECF3983EDCF39E
:10287000869577956795B795F795E7959F5FC1F72B
:10288000FE2B880F911D9695879597F9089597F9D6
:102890009F6780E870E060E008959FEF80EC089506
:1028A00000240A941616170618060906089500242F
:1028B0000A9412161306140605060895092E0394A9
:1028C000000C11F4882352F0BB0F40F4BF2B11F41D
:1028D00060FF04C06F5F7F4F8F4F9F4F089557FD7C
:1028E0009058440F551F59F05F3F71F04795880F7E
:1028F00097FB991F61F09F3F79F087950895121615
:1029000013061406551FF2CF4695F1DF08C01616C0
:1029100017061806991FF1CF869571056105089471
:102920000895E894BB2766277727CB0197F9089588
:10293000DB018F939F932DD0BF91AF91A29F800D0C
:10294000911DA39F900DB29F900D11240895A1E2B7
:102950001A2EAA1BBB1BFD010DC0AA1FBB1FEE1F19
:10296000FF1FA217B307E407F50720F0A21BB30B64
:10297000E40BF50B661F771F881F991F1A9469F7E0
:1029800060957095809590959B01AC01BD01CF013C
:10299000089509D0A59F900DB49F900DA49F800D20
:1029A000911D11240895A29FB001B39FC001A39F60
:1029B000700D811D1124911DB29F700D811D112478
:1029C000911D08955058BB27AA270ED077CF68DFF6
:1029D00030F06DDF20F031F49F3F11F41EF45DCF35
:1029E0000EF4E095E7FB53CFE92F79DF80F3BA17B8
:1029F000620773078407950718F071F49EF591CF6D
:102A00000EF4E0950B2EBA2FA02D0B01B901900109
:102A10000C01CA01A0011124FF27591B99F0593F4D
:102A200050F4503E68F11A16F040A22F232F342F95
:102A30004427585FF3CF469537952795A795F040E3
:102A40005395C9F77EF41F16BA0B620B730B840BF8
:102A5000BAF09150A1F0FF0FBB1F661F771F881FB0
:102A6000C2F70EC0BA0F621F731F841F48F4879508
:102A700077956795B795F7959E3F08F0B3CF9395F7
:102A8000880F08F09927EE0F9795879508950CD039
:102A900015CF0DDF40F004DF30F021F45F3F19F077
:102AA000F6CE51113FCFF9CE1ADF98F39923C9F32F
:102AB0005523B1F3951B550BBB27AA276217730744
:102AC000840738F09F5F5F4F220F331F441FAA1FF8
:102AD000A9F333D00E2E3AF0E0E830D091505040B8
:102AE000E695001CCAF729D0FE2F27D0660F771F66
:102AF000881FBB1F261737074807AB07B0E809F048
:102B0000BB0B802DBF01FF2793585F4F2AF09E3FDC
:102B1000510568F0BCCE06CF5F3FECF3983EDCF386
:102B2000869577956795B795F7959F5FC9F7880F55
:102B3000911D9695879597F90895E1E0660F771FA7
:102B4000881FBB1F621773078407BA0720F0621B38
:102B5000730B840BBA0BEE1F88F7E095089504D031
:102B60006894B111DFCE0895C2DE88F09F5790F0CF
:102B7000B92F9927B751A0F0D1F0660F771F881FA2
:102B8000991F1AF0BA95C9F712C0B13081F0C9DEA9
:102B9000B1E00895C6CE672F782F8827B85F39F047
:102BA000B93FCCF3869577956795B395D9F73EF401
:102BB00090958095709561957F4F8F4F9F4F0895A9
:102BC000FA01EE0FFF1F30962105310599F16115CD
:102BD000710561F48038BFE39B0749F16894903830
:102BE000810561F08038BFEF9B0741F0992342F5E2
:102BF000FF3FE1053105210511F1E8940894E795BF
:102C0000D901AA2329F4AB2FBE2FF85FD0F310C04F
:102C1000FF5F70F4A695E0F7F73950F019F0FF3A2E
:102C200038F49F779F930CD00F9007FC905808952D
:102C30003EF033CE60E070E080E89FE308954FE718
:102C40009F775F934F933F932F939ED02F913F9108
:102C50004F915F91B9DD05C019F40EF018CE61CE29
:102C60001CCE45DEC8F39638C0F707F80F92E894FB
:102C70002BE33AEA48EB5FE7B5DD0F920F920F9234
:102C80004DB75EB70F92C0D0E4EEF0E016D04F9192
:102C90005F91EF91FF91E595EE1FFF1F49F0FE5701
:102CA000E0684427EE0F441FFA95E1F74195550B74
:102CB00032D00F9007FE26C00895DF93CF931F9365
:102CC0000F93FF92EF92DF927B018C01689405C015
:102CD000DA2EEF0185DDFE01E894A591259135916D
:102CE00045915591AEF3EF017FDEFE019701A801FA
:102CF000DA9479F7DF90EF90FF900F911F91CF91C9
:102D0000DF9108959B01AC0160E070E080E89FE3F3
:102D1000BECEBDCDACC0EBDDE8F39923D9F3940F63
:102D2000511DBBF39150504094F059F0882332F07C
:102D3000660F771F881F91505040C1F79E3F510585
:102D400044F7880F911D9695879597F908955F3FF1
:102D5000ACF0983E9CF0BB27869577956795B79524
:102D600008F4B1609395C1F7BB0F58F711F460FFF9
:102D7000E8CF6F5F7F4F8F4F9F4FE3CFD3CD0EF0E4
:102D800076C08BCD689483CDB2DDC8F39923D1F39F
:102D9000C6F3DF93CF931F930F93FF92C92FDD27C5
:102DA00088232AF02197660F771F881FDAF720E023
:102DB00030E040E85FEB9FE3883920F0803E30F060
:102DC00021968F7700DEECE0F1E003C0FCDDE9E363
:102DD000F1E073DF8B01BE01EC01FB2E6F5771092F
:102DE0007595771F880B990BB4DC28E132E741E336
:102DF0005FE3F6DCAF2D9801AE01FF900F911F91BC
:102E0000CF91DF91F1DD5ACDFA01DC01AA0FBB1F92
:102E10009B01AC01BF5728F4222733274427507861
:102E20001FC0B75188F4AB2F0024469537952795DE
:102E3000011CA395D2F3002069F0220F331F441F19
:102E4000B395DAF30DD0BECD61307105A0E88A07E5
:102E5000B94630F49B01AC01662777278827907824
:102E6000309621F0208331834283538308959F3F1E
:102E700031F0915020F4879577956795B795880F35
:102E8000911D9695879597F90895052E97FB16F451
:102E900000940FD057FD05D05ADD07FC02D046F450
:102EA00008C050954095309521953F4F4F4F5F4F4B
:102EB000089590958095709561957F4F8F4F9F4FA6
:102EC0000895EE0FFF1F881F8BBF0790F691E02D2E
:102ED0001994B7FF5ECD5DDD821B930B08950F93B0
:102EE0001F93CF93DF938230910510F482E090E03E
:102EF000E091AA04F091AB0430E020E0B0E0A0E063
:102F0000309799F42115310509F44AC0281B390B73
:102F100024303105D8F58A819B816115710589F1CD
:102F2000FB0193838283FE0111C0408151810281A4
:102F3000138148175907E0F04817590799F410977B
:102F400061F012960C93129713961C933296CF0150
:102F5000DF91CF911F910F9108950093AA041093D0
:102F6000AB04F4CF2115310551F04217530738F067
:102F7000A901DB019A01BD01DF01F801C1CFEF0119
:102F8000F9CF9093AB048093AA04CDCFFE01E20F5A
:102F9000F31F819391932250310939832883D7CF2E
:102FA0002091A8043091A904232B41F4209102021E
:102FB000309103023093A9042093A80420910002C9
:102FC000309101022115310541F42DB73EB74091F2
:102FD000040250910502241B350BE091A804F091E6
:102FE000A904E217F307A0F42E1B3F0B281739079B
:102FF00078F0AC014E5F5F4F2417350748F04E0F55
:103000005F1F5093A9044093A804819391939FCF8D
:10301000F0E0E0E09CCFCF93DF930097E9F0FC0174
:10302000329713821282A091AA04B091AB04ED01F1
:1030300030E020E01097A1F420813181820F931FAE
:103040002091A8043091A9042817390709F061C01C
:10305000F093A904E093A804DF91CF910895EA01C9
:10306000CE17DF07E8F54A815B819E0141155105C6
:10307000B1F7E901FB83EA8349915991C40FD51F48
:10308000EC17FD0761F4808191810296840F951FF2
:10309000E90199838883828193819B838A83F0E00D
:1030A000E0E012968D919C9113970097B9F52D91C0
:1030B0003C911197CD010296820F931F2091A80495
:1030C0003091A9042817390739F6309751F5109235
:1030D000AB041092AA04B093A904A093A804BCCF97
:1030E000D383C28340815181840F951FC817D907AC
:1030F00061F44E5F5F4F88819981480F591F51835A
:1031000040838A819B81938382832115310509F055
:10311000B0CFF093AB04E093AA049ECFFD01DC0195
:10312000C0CF13821282D7CF4F925F926F927F925D
:103130008F929F92AF92BF92CF92DF92EF92FF92C7
:103140000F931F93CF93DF938C01009791F4CB01E2
:10315000DF91CF911F910F91FF90EF90DF90CF9073
:10316000BF90AF909F908F907F906F905F904F90A7
:10317000B6CEFC01E60FF71F9C0122503109E21781
:10318000F30708F4AAC0D901CD91DC911197C617B5
:10319000D70718F1C530D10570F0CE010497861716
:1031A000970748F0C61BD70B2297C193D1936D9315
:1031B0007C93CF0130DFC801DF91CF911F910F9138
:1031C000FF90EF90DF90CF90BF90AF909F908F9047
:1031D0007F906F905F904F9008955B01AC1ABD0A8D
:1031E0004C018C0E9D1EA091AA04B091AB04512CF1
:1031F000412CF12CE12C109731F58091A80490918D
:10320000A9048815990509F05CC04616570608F010
:1032100058C08091000290910102009741F48DB74F
:103220009EB74091040250910502841B950BE8174C
:10323000F90708F052C0F093A904E093A804F9013B
:1032400071836083B8CF8D919C91119712966C9089
:10325000129713967C901397A815B90559F56C0130
:1032600042E0C40ED11CCA14DB0420F1AC014A199F
:103270005B09DA011296159780F06282738251839E
:103280004083D9016D937C93E114F10471F0D7016F
:103290001396FC93EE9312978ECF22968C0F9D1F60
:1032A000F90191838083F301EFCFF093AB04E093B6
:1032B000AA0481CF4816590608F42C017D01D301D8
:1032C0009ACFCB010CDE7C01009739F0AE01B8013A
:1032D00007D0C801A0DE87016ECF10E000E06BCF01
:1032E000FB01DC0102C001900D9241505040D8F723
:1032F0000895FB01DC0101900D920020E1F7089593
:1033000011E0C1ECD1E000E005C0802FFE01D9DD65
:103310002196011DC23CD10780E00807B1F7F8945F
:02332000FFCFDD
:103322000000AC04800000000000F1025902890292
:103332003D03BA029802AC02000000005A052E05B5
:10334200A005880251021B050C0500000000D609E9
:103352005902A0055802564D4450565F317C315FE8
:10336200564D4450560A00486F6D6520576561748A
:1033720068657200202053746174696F6E202000AA
:103382006F430054656D70657261747572650025D6
:103392000048756D6964697479006D6D4867004114
:0C33A200697220507265737375726500CB
:020000023000CC
:10E000000D9489F10D94B2F10D94B2F10D94B2F129
:10E010000D94B2F10D94B2F10D94B2F10D94B2F1F0
:10E020000D94B2F10D94B2F10D94B2F10D94B2F1E0
:10E030000D94B2F10D94B2F10D94B2F10D94B2F1D0
:10E040000D94B2F10D94B2F10D94B2F10D94B2F1C0
:10E050000D94B2F10D94B2F10D94B2F10D94B2F1B0
:10E060000D94B2F10D94B2F10D94B2F10D94B2F1A0
:10E070000D94B2F10D94B2F10D94B2F10D94B2F190
:10E080000D94B2F10D94B2F10D94B2F10D94B2F180
:10E090000D94B2F10D94B2F10D94B2F10D94B2F170
:10E0A0000D94B2F10D94B2F10D94B2F10D94B2F160
:10E0B0000D94B2F10D94B2F10D94B2F10D94B2F150
:10E0C0000D94B2F10D94B2F10D94B2F10D94B2F140
:10E0D0000D94B2F10D94B2F10D94B2F10D94B2F130
:10E0E0000D94B2F141546D656761323536300041AF
:10E0F000726475696E6F206578706C6F72657220DE
:10E1000073746B3530305632206279204D4C530099
:10E11000426F6F746C6F616465723E004875683F52
:10E1200000436F6D70696C6564206F6E203D200048
:10E130004350552054797065202020203D20005FF9
:10E140005F4156525F415243485F5F3D2000415658
:10E1500052204C696243205665723D20004743437C
:10E160002056657273696F6E203D20004350552024
:10E1700049442020202020203D20004C6F7720663D
:10E18000757365202020203D20004869676820665F
:10E190007573652020203D200045787420667573D6
:10E1A00065202020203D20004C6F636B2066757336
:10E1B000652020203D20004D617220203720323024
:10E1C000313300312E362E3800342E332E350056A2
:10E1D00023202020414444522020206F7020636F70
:10E1E00064652020202020696E73747275637469E1
:10E1F0006F6E2061646472202020496E74657272B3
:10E20000757074006E6F20766563746F7200726A49
:10E210006D702020006A6D70200057686174207056
:10E220006F72743A00506F7274206E6F7420737541
:10E2300070706F72746564004D7573742062652030
:10E2400061206C6574746572002000577269747483
:10E25000696E672045450052656164696E672045B7
:10E26000450045452065727220636E743D00504F35
:10E27000525400303D5A65726F2061646472003FF1
:10E280003D43505520737461747300403D454550C3
:10E29000524F4D207465737400423D426C696E6B41
:10E2A000204C454400453D44756D70204545505215
:10E2B0004F4D00463D44756D7020464C415348001B
:10E2C000483D48656C70004C3D4C69737420492F83
:10E2D0004F20506F72747300513D51756974005234
:10E2E0003D44756D702052414D00563D73686F7707
:10E2F00020696E7465727275707420566563746FF0
:10E30000727300593D506F727420626C696E6B00BD
:10E310002A0011241FBECFEFD1E2DEBFCDBF01E046
:10E320000CBF12E0A0E0B2E0EEE1FDEF03E00BBFB6
:10E3300002C007900D92A030B107D9F712E0A0E01B
:10E34000B2E001C01D92AE30B107E1F70F9460F367
:10E350000D948DFE01E20EBF0FEF0DBF11241FBE05
:10E360000D9460F30D9400F020E030E040ED57E0B4
:10E3700005C0FA013197F1F72F5F3F4F2817390792
:10E38000C0F308959C01260F311DC901A0E0B0E043
:10E390002F5F3F4FABBFFC018791882361F08093D3
:10E3A000C6008091C00086FFFCCF8091C0008064D1
:10E3B0008093C000EACF08958DE08093C6008091DD
:10E3C000C00086FFFCCF8091C00080648093C000B5
:10E3D0008AE08093C6008091C00086FFFCCF8091C8
:10E3E000C00080648093C00008950F94C2F10F9420
:10E3F000DCF10895FC019081992359F09093C600B7
:10E400008091C00086FFFCCF8091C0008064809323
:10E41000C0003196992379F70895282F982F929567
:10E420009F70892F805D8A3308F0895F8093C600D2
:10E430008091C00086FFFCCF8091C00080648093F3
:10E44000C000822F8F70982F905D9A3308F0995FEB
:10E450009093C6008091C00086FFFCCF8091C000E1
:10E4600080648093C00008959C01FB01853691056E
:10E470001CF46330710594F0C90164E670E00F94F8
:10E480002EFE605D7F4F6093C6008091C00086FFC6
:10E49000FCCF8091C00080648093C0002B30310598
:10E4A00014F43297B4F0C90164E670E00F942EFEC4
:10E4B0006AE070E00F942EFE605D7F4F6093C600AF
:10E4C0008091C00086FFFCCF8091C0008064809363
:10E4D000C000C9016AE070E00F942EFEC0968093E0
:10E4E000C6008091C00086FFFCCF8091C000806490
:10E4F0008093C00008951F93182F8EE692EE60E07F
:10E500000F94C2F11093C6008091C00086FFFCCF2B
:10E510008091C00080648093C0000F94DCF11F9153
:10E5200008952F923F924F925F926F927F928F92B7
:10E530009F92AF92BF92CF92DF92EF92FF920F9392
:10E540001F93DF93CF93CDB7DEB762970FB6F894E2
:10E55000DEBF0FBECDBF382E622ECA01DB015C01CB
:10E560006D01772420E2222E2E010894411C511CBB
:10E570008BC081E0A81680E0B80681E0C80680E084
:10E58000D80628F0C601AA27BB270F940DF2BB2797
:10E59000AD2D9C2D8B2D0F940DF28A2D0F940DF225
:10E5A0002092C6008091C00086FFFCCF8091C00001
:10E5B00080648093C0009DE29093C6008091C0006B
:10E5C00086FFFCCF8091C00080648093C0002092C1
:10E5D000C6008091C00086FFFCCF8091C00080649F
:10E5E0008093C00019828601750188249924A1E0D6
:10E5F0003A1651F03A1620F0B2E03B1661F409C029
:10E600000BBFF701779007C0C7010F9477FE782EF4
:10E6100002C0F7017080872D0F940DF22092C60082
:10E620008091C00086FFFCCF8091C0008064809301
:10E63000C000872D8052F401EF70F0708F3520F408
:10E64000E40DF51D708204C0E40DF51D8EE280839B
:10E650000894E11CF11C011D111D0894811C911CE2
:10E6600090E18916910409F0C2CF80E190E0A0E02A
:10E67000B0E0A80EB91ECA1EDB1E198AC2010F9493
:10E68000FAF10F94DCF16A94662009F072CF629679
:10E690000FB6F894DEBF0FBECDBFCF91DF911F91B3
:10E6A0000F91FF90EF90DF90CF90BF90AF909F9031
:10E6B0008F907F906F905F904F903F902F90089534
:10E6C0002F923F924F925F926F927F928F929F9282
:10E6D000AF92BF92CF92DF92EF92FF920F931F9370
:10E6E000DF93CF93CDB7DEB7CD53D1400FB6F894BB
:10E6F000DEBF0FBECDBF01E20EBF0FEF0DBF94B75F
:10E70000F894A89514BE80916000886180936000A1
:10E7100010926000789493FF05C0E0910002F091A0
:10E7200001021995279A2F9A8091C00082608093E8
:10E73000C00080E18093C40088E18093C1000000A4
:10E74000EE24FF24870144E0A42EB12CCC24DD2448
:10E7500024C0C5010197F1F70894E11CF11C011DCB
:10E76000111D21E2E2162EE4F20620E0020720E06D
:10E77000120718F031E0C32ED12CC801B70127ECE5
:10E780003BE140E050E00F9441FE611571058105C9
:10E79000910519F485B1805885B98091C00087FD35
:10E7A00003C0C114D104A9F2A6014F5F5F4FC25E3E
:10E7B000DE4F59834883CE51D140C25EDE4F8881FF
:10E7C0009981CE51D140019711F00D9410FEC05D9A
:10E7D000DE4F19821882C053D14060E0C15DDE4F28
:10E7E0001882CF52D14088249924C35DDE4F19820C
:10E7F0001882CD52D140C05EDE4F188219821A8233
:10E800001B82C052D140CE5CDE4F188219821A8220
:10E810001B82C253D140EE24FF2487010BBFF701B6
:10E8200007911691C45CDE4F19830883CC53D14005
:10E830000D940BFEC25EDE4F28813981CE51D1404E
:10E840002130310509F52091C600C25EDE4F1982E4
:10E850001882CE51D14022C02F5F3F4F4F4F5F4FA4
:10E86000213082E138078AE7480780E0580780F0C6
:10E87000C45CDE4FE881F981CC53D140EF5FFF4F9C
:10E8800019F0EE27FF27099420E030E040E050E047
:10E890008091C00087FFE0CF2091C600C35DDE4FAE
:10E8A00048815981CD52D1404F5F5F4FC35DDE4FEC
:10E8B00059834883CD52D140213209F063C64A3092
:10E8C000510508F05FC60894811C911C53E0851621
:10E8D000910409F059C600E010E018C081E280936D
:10E8E000C6008091C00086FFFCCF8091C00080648C
:10E8F0008093C0002F5F3F4F2931310579F70F9486
:10E90000DCF10F5F1F4F0530110519F020E030E0FA
:10E91000E5CF10920A0210920B0210920C02109294
:10E920000D02109206021092070210920802109235
:10E930000902109202021092030210920402109235
:10E9400005028FEE90EE60E00F94F5F180E191EE1C
:10E9500060E00F94C2F18091C00087FFFCCF9091DE
:10E96000C600903608F09F759032B8F09093C600BC
:10E970008091C00086FFFCCF8091C00080648093AE
:10E98000C000A0E2A093C6008091C00086FFFCCF2B
:10E990008091C00080648093C000983409F4D7C18E
:10E9A0009934B8F4923409F459C1933458F490333B
:10E9B00019F1903308F4E3C59F33A1F1903409F0C5
:10E9C000DEC5BDC0953409F470C1963409F0D7C5D1
:10E9D00098C1923509F42BC2933538F49C3409F46C
:10E9E000F5C1913509F0CBC518C2963509F445C279
:10E9F000993509F0C4C567C483E792EE62E00F94CD
:10EA0000F5F110920602109207021092080210927D
:10EA1000090210920A0210920B0210920C0210923C
:10EA20000D0213C18FE792EE62E00F94F5F18FEEC5
:10EA300090EE60E00F94F5F181E291EE60E00F94CA
:10EA4000C2F187EB91EE60E00F94F5F180E391EE77
:10EA500060E00F94C2F184EE90EE60E00F94F5F167
:10EA60008FE391EE60E00F94C2F186E090E061E008
:10EA700070E00F9434F20F94DCF18DE591EE60E0DC
:10EA80000F94C2F189EC91EE60E00F94F5F18EE401
:10EA900091EE60E00F94C2F183EC91EE60E00F9490
:10EAA000F5F18CE691EE60E00F94C2F18EE10F94E7
:10EAB0000DF288E90F940DF281E00F940DF20F949E
:10EAC000DCF18BE791EE60E00F94C2F119E0E0E039
:10EAD000F0E010935700E4918E2F0F940DF20F94F5
:10EAE000DCF18AE891EE60E00F94C2F1E3E0F0E03F
:10EAF00010935700E4918E2F0F940DF20F94DCF1D8
:10EB000089E991EE60E00F94C2F1E2E0F0E0109349
:10EB10005700E4918E2F0F940DF20F94DCF188EAE8
:10EB200091EE60E00F94C2F1E1E0F0E01093570045
:10EB30001491812F0F940DF20F94DCF107CF8BE825
:10EB400092EE62E00F94F5F18BE492EE60E00F94A8
:10EB5000F5F10F94DCF100E010E019C0C8016F2D51
:10EB60000F947FFEFF2031F489E492EE60E00F9471
:10EB7000C2F10BC0F092C6008091C00086FFFCCFAE
:10EB80008091C00080648093C0000F5F1F4FC80158
:10EB900081519F41A0E0B0E0ABBFFC01F790BAE229
:10EBA000FB1621F0E2E000301E07C1F60F94DCF105
:10EBB0000F94DCF187E592EE60E00F94F5F10F948D
:10EBC000DCF1CC24DD2400E010E01EC0C8010F946D
:10EBD00077FEF82E882331F489E492EE60E00F94FA
:10EBE000C2F10BC08093C6008091C00086FFFCCFAD
:10EBF0008091C00080648093C000FE1419F00894D6
:10EC0000C11CD11C0F5F1F4FC80181519F41A0E063
:10EC1000B0E0ABBFFC01E790FAE2EF1621F022E092
:10EC20000030120799F60F94DCF10F94DCF182E6C4
:10EC300092EE60E00F94C2F1C60161E070E00F94C3
:10EC400034F20F94DCF10F94DCF110920202109276
:10EC50000302109204021092050278CE89E992EE26
:10EC600062E00F94F5F1279A2F9A16C02F9880E052
:10EC700090E0E0EDF7E03197F1F7019684369105E9
:10EC8000C1F72F9A80E090E0E0EDF7E03197F1F7DF
:10EC9000019684369105C1F78091C00087FFE6CFC9
:10ECA0008091C00087FFFCCF64C485EA92EE62E0E9
:10ECB0000F94F5F140910202509103026091040219
:10ECC0007091050281E020E10F9491F2809102029F
:10ECD00090910302A0910402B091050280509F4FD1
:10ECE000AF4FBF4F8093020290930302A0930402A0
:10ECF000B093050280509041A040B04008F426CE69
:10ED0000A4CF83EB92EE62E00F94F5F140910602FE
:10ED100050910702609108027091090280E020E1A1
:10ED20000F9491F28091060290910702A09108023F
:10ED3000B091090280509F4FAF4FBF4F80930602A2
:10ED400090930702A0930802B0930902FFCD80ECD4
:10ED500092EE62E00F94F5F183E792EE60E00F949B
:10ED6000F5F18FE792EE60E00F94F5F18BE892EE0B
:10ED700060E00F94F5F189E992EE60E00F94F5F10F
:10ED800085EA92EE60E00F94F5F183EB92EE60E09D
:10ED90000F94F5F180EC92EE60E00F94F5F187ECC2
:10EDA00092EE60E00F94F5F188ED92EE60E00F9442
:10EDB000F5F18FED92EE60E00F94F5F18AEE92EEB0
:10EDC00060E00F94F5F183E093EEBDCD87EC92EE19
:10EDD00062E00F94F5F181E40F947BF282E40F94EA
:10EDE0007BF283E40F947BF284E40F947BF285E45E
:10EDF0000F947BF286E40F947BF287E40F947BF20E
:10EE000088E40F947BF28AE40F947BF28BE40F94F6
:10EE10007BF28CE40F947BF299CD88ED92EE62E068
:10EE20000F94F5F1772473948824992409C48FED05
:10EE300092EE62E00F94F5F140910A0250910B02BC
:10EE400060910C0270910D0282E020E10F9491F22A
:10EE500080910A0290910B02A0910C02B0910D02D8
:10EE600080509F4FAF4FBF4F80930A0290930B0289
:10EE7000A0930C02B0930D0269CD8AEE92EE62E08F
:10EE80000F94F5F184EE90EE60E00F94F5F18FECC5
:10EE900091EE60E00F94F5F1662477244301CC5D98
:10EEA000DE4F19821882C452D140D401C301B695F5
:10EEB000A79597958795CA5DDE4F88839983AA8326
:10EEC000BB83C652D140CC5DDE4FA881B981C4520C
:10EED000D1401196CC5DDE4FB983A883C452D14096
:10EEE000CD0162E070E00F9434F2B0E2B093C6005E
:10EEF0008091C00086FFFCCF8091C0008064809329
:10EF0000C000EDE2E093C6008091C00086FFFCCF18
:10EF10008091C00080648093C000F0E2F093C6004E
:10EF20008091C00086FFFCCF8091C00080648093F8
:10EF3000C000CA5DDE4FE880F9800A811B81C6529D
:10EF4000D140BB27A12F902F8F2D0F940DF2CA5DBA
:10EF5000DE4F8881C652D1400F940DF2B0E2FB2EF5
:10EF6000F092C6008091C00086FFFCCF8091C00067
:10EF700080648093C0000DE30093C6008091C000C0
:10EF800086FFFCCF8091C00080648093C00010E2B7
:10EF90001093C6008091C00086FFFCCF8091C00016
:10EFA00080648093C0008BBEF3012791C65DDE4F65
:10EFB0002883CA52D140A22EBB24CC24DD2408943D
:10EFC000611C711C811C911C8BBEF3018791282E42
:10EFD0003324442455240894611C711C811C911C09
:10EFE0008BBEF3013791C55DDE4F3883CB52D140E4
:10EFF0000894611C711C811C911C8BBEF30147910C
:10F00000C45DDE4F4883CC52D140ADEFEA2EAFEF66
:10F01000FA2EAFEF0A2FAFEF1A2F6E0C7F1C801E57
:10F02000911E142D032DF22CEE24EA0CFB1C0C1D5A
:10F030001D1D0F940DF220E22093C6008091C000A8
:10F0400086FFFCCF8091C00080648093C000C65DC5
:10F05000DE4F8881CA52D1400F940DF230E23093D6
:10F06000C6008091C00086FFFCCF8091C000806404
:10F070008093C000C45DDE4F8881CC52D1400F9494
:10F080000DF240E24093C6008091C00086FFFCCFA5
:10F090008091C00080648093C000C55DDE4F888190
:10F0A000CB52D1400F940DF250E25093C6008091A4
:10F0B000C00086FFFCCF8091C00080648093C000B8
:10F0C0008FEFE8168FEFF80680E0080780E018075A
:10F0D00031F484E092EE60E00F94C2F1DFC0D80119
:10F0E000C7018070907CA070B0708050904CA040A0
:10F0F000B040D1F52FEF3FE340E050E0E222F322B1
:10F1000004231523CA5DDE4FA880B980CA80DB8046
:10F11000C652D140AE0CBF1CC01ED11EAA0CBB1CD7
:10F12000CC1CDD1C8EE092EE60E00F94C2F1BB2798
:10F13000A12F902F8F2D0F940DF28E2D0F940DF285
:10F1400030E23093C6008091C00086FFFCCF8091F2
:10F15000C00080648093C0004EE34093C60080915D
:10F16000C00086FFFCCF87C08EE09EEFA0E0B0E03D
:10F17000E822F9220A231B239CE0E91694E9F90608
:10F1800090E0090790E0190709F088C0C45DDE4FE0
:10F19000A881CC52D140EA2EFF2400E010E0102FCD
:10F1A0000F2DFE2CEE24C55DDE4FB881CB52D14031
:10F1B000EB0EF11C011D111DD601C501817090706F
:10F1C000A070B070DC0199278827E80EF91E0A1F8D
:10F1D0001B1F20EF30E040E050E0A222B322C42207
:10F1E000D52241E1AA0CBB1CCC1CDD1C4A95D1F7F1
:10F1F000EA0CFB1C0C1D1D1D81E090E0A0E0B0E0BE
:10F20000282239224A225B2235E1220C331C441C7D
:10F21000551C3A95D1F7E20CF31C041D151D57013E
:10F220006801AA0CBB1CCC1CDD1C85E192EE60E0E1
:10F230000F94C2F1C801AA27BB270F940DF2BB2778
:10F24000A12F902F8F2D0F940DF28E2D0F940DF274
:10F2500090E29093C6008091C00086FFFCCF809121
:10F26000C00080648093C000AEE3A093C60080918C
:10F27000C00086FFFCCF8091C00080648093C000F6
:10F28000C601AA27BB270F940DF2BB27AD2D9C2DDD
:10F290008B2D0F940DF28A2D0F940DF20F94DCF14B
:10F2A000CC5DDE4FE881F981C452D140F99709F471
:10F2B0004DCBF4E0EF2EF12C012D112D6E0C7F1CA7
:10F2C000801E911EF2CD83E093EE62E00F94F5F183
:10F2D0008AE192EE60E00F94C2F18091C00087FF56
:10F2E000FCCF1091C6001F751093C6008091C0001E
:10F2F00086FFFCCF8091C00080648093C0000F9493
:10F30000DCF1812F81548A3108F036C1163409F4BA
:10F3100095C0173490F4133409F44EC0143430F40B
:10F320001134F1F0123409F01DC130C0143409F465
:10F3300059C0153409F016C16BC01A3409F4C4C0A1
:10F340001B3438F4173409F48FC0183409F00AC19B
:10F35000A1C01B3409F4D2C01C3409F003C1E8C0B9
:10F360008FEF81B90DC082B1809582B980E090E0C5
:10F37000E0EDF7E03197F1F70196883C9105C1F790
:10F380008091C00087FFEFCF12B8EFC08FEF84B934
:10F390000DC085B1809585B980E090E0E0EDF7E0A3
:10F3A0003197F1F70196883C9105C1F78091C00033
:10F3B00087FFEFCF15B8D9C08FEF87B90DC088B1DF
:10F3C000809588B980E090E0E0EDF7E03197F1F7C3
:10F3D0000196883C9105C1F78091C00087FFEFCF6F
:10F3E00018B8C3C08FEF8AB90DC08BB180958BB9A7
:10F3F00080E090E0E0EDF7E03197F1F70196883C8E
:10F400009105C1F78091C00087FFEFCF1BB8ADC059
:10F410008FEF8DB90DC08EB180958EB980E090E0F0
:10F42000E0EDF7E03197F1F70196883C9105C1F7DF
:10F430008091C00087FFEFCF1EB897C08FEF80BBD1
:10F440000DC081B3809581BB80E090E0E0EDF7E0F6
:10F450003197F1F70196883C9105C1F78091C00082
:10F4600087FFEFCF11BA81C08FEF83BB0DC084B38C
:10F47000809584BB80E090E0E0EDF7E03197F1F714
:10F480000196883C9105C1F78091C00087FFEFCFBE
:10F4900014BA6BC08FEF809301010FC080910201FD
:10F4A00080958093020180E090E0E0EDF7E03197F5
:10F4B000F1F70196883C9105C1F78091C00087FF64
:10F4C000EDCF1092020151C08FEF809304010FC065
:10F4D0008091050180958093050180E090E0E0ED4A
:10F4E000F7E03197F1F70196883C9105C1F78091DB
:10F4F000C00087FFEDCF1092050137C08FEF8093DA
:10F5000007010FC08091080180958093080180E079
:10F5100090E0E0EDF7E03197F1F70196883C910536
:10F52000C1F78091C00087FFEDCF109208011DC088
:10F530008FEF80930A010FC080910B01809580931B
:10F540000B0180E090E0E0EDF7E03197F1F70196F4
:10F55000883C9105C1F78091C00087FFEDCF1092E4
:10F560000B0103C085E292EEEEC98091C00087FFD7
:10F57000FCCF8091C600EAC988E392EEE4C98CE131
:10F5800091EEE1C988249924933011F1943028F444
:10F59000913089F09230B8F408C0953061F195301F
:10F5A000F0F0963009F048C043C02B3109F042C951
:10F5B00091E06BE13FC96227C15DDE4F2883CF52E6
:10F5C000D14092E037C9B22FA0E0622793E032C960
:10F5D000822F90E0A82BB92B622794E02BC92E3004
:10F5E00009F039C3622795E0C05DDE4F19821882A9
:10F5F000C053D1401FC9E1E0F0E0EC0FFD1FC05D3A
:10F60000DE4F08811981C053D140E00FF11F2083E4
:10F610000F5F1F4FC05DDE4F19830883C053D14079
:10F6200062270A171B0709F005C9D80196E002C92D
:10F63000261709F010C303C0973009F0FBC87724E0
:10F640009981933109F412C19431C8F4963009F4C8
:10F65000D8C0973050F4923009F406C1933009F4C1
:10F660006DC0913009F059C253C0913109F477C08F
:10F67000923108F0BBC0903109F04FC2F5C098310B
:10F6800009F487C0993150F4953109F4EFC09531F0
:10F6900008F4C6C1963109F040C2C2C19A3109F4DA
:10F6A0006CC09A3108F491C09B3109F45BC09D3164
:10F6B00009F033C29D81903359F48F81882311F46E
:10F6C0009EE11CC0813011F091E018C098E916C08D
:10F6D000892F807591F0903539F4E0E0F0E089E011
:10F6E0008093570094910AC0983539F4E3E0F0E034
:10F6F00089E080935700949101C090E01A821B82A8
:10F700008D818C831D829E831F8227E030E009C299
:10F710001A8288E08B8381E48C8386E58D8382E581
:10F720008E8389E48F8383E5888780E589878FE5E9
:10F730008A8782E38B872BE030E0F3C18A818139AD
:10F7400041F0823941F0803911F48FE005C080E04A
:10F7500003C082E001C08AE01A828B8344C0772410
:10F76000739482C08D81882311F48EE12CC0813086
:10F7700011F081E028C088E926C01A82E1E0F0E0BB
:10F7800089E08093570084918B831C8224E030E0D1
:10F79000C8C18B81803589F48C81883039F4E2E0EE
:10F7A000F0E089E08093570084910DC0E0E0F0E044
:10F7B00089E080935700849106C0E3E0F0E089E09F
:10F7C0008093570084911A82DFCF8D81836C99E0FA
:10F7D000E1E0F0E0082E90935700E89507B600FCB2
:10F7E000FDCF1A821B8223E030E09BC180EC8A832C
:10F7F000CE5CDE4F188219821A821B82C253D1401E
:10F800008EC18A8190E0A0E0B0E0582F44273327D2
:10F8100022278B8190E0A0E0B0E0DC0199278827C7
:10F82000282B392B4A2B5B2B8D8190E0A0E0B0E098
:10F83000282B392B4A2B5B2B8C8190E0A0E0B0E089
:10F84000BA2FA92F982F8827282B392B4A2B5B2BCF
:10F85000220F331F441F551FC05EDE4F288339839C
:10F860004A835B83C052D1401A8259C13A81C95C34
:10F87000DE4F3883C753D140CA5CDE4F1882C6536F
:10F88000D1408B81C82EDD24CA5CDE4F488159816E
:10F89000C653D140C42AD52A933109F082C0CE5C28
:10F8A000DE4F88819981AA81BB81C253D1408050AB
:10F8B000904CA340B04030F583E0CE5CDE4FE88052
:10F8C000F9800A811B81C253D140F70100935B008C
:10F8D00080935700E89507B600FCFDCFCE5CDE4F65
:10F8E000088119812A813B81C253D14000501F4FAA
:10F8F0002F4F3F4FCE5CDE4F088319832A833B8313
:10F90000C253D140C05EDE4F488159816A817B81FC
:10F91000C052D140DE011B9631E08C9111962C91A2
:10F9200011971296C75CDE4F2883C953D140C85C3B
:10F93000DE4F1882C853D14090E0C85CDE4FE881AA
:10F94000F981C853D1408E2B9F2B0C01FA01609393
:10F950005B0030935700E89511244E5F5F4F6F4F67
:10F960007F4F0EEFE02E0FEFF02ECE0CDF1CC114F8
:10F97000D10499F685E0C05EDE4F088119812A81A5
:10F980003B81C052D140F80120935B008093570027
:10F99000E89507B600FCFDCF81E180935700E8951C
:10F9A00035C0C05EDE4F88819981AA81BB81C0527B
:10F9B000D140B695A795979587957C018601ABE0D8
:10F9C000AA2EB12CAC0EBD1E0BC0D5016D915D01F0
:10F9D000C7010F947FFE0894E11CF11C01501040F8
:10F9E0000115110591F7A60160E070E0440F551F65
:10F9F000661F771FC05EDE4FE880F9800A811B8199
:10FA0000C052D1404E0D5F1D601F711F1A82C05E33
:10FA1000DE4F488359836A837B83C052D1407FC0C5
:10FA2000FA80C55CDE4FF882CB53D140C65CDE4F16
:10FA30001882CA53D1408B81C82EDD24C65CDE4FAC
:10FA400008811981CA53D140C02AD12A1A828981DA
:10FA5000BE016D5F7F4F843121F59601C05EDE4FA0
:10FA6000E880F9800A811B81C052D1400BBFF701A9
:10FA700087919691DB018C9311969C936E5F7F4FDB
:10FA8000D801C7010296A11DB11DC05EDE4F88835B
:10FA90009983AA83BB83C052D14022503040F1F6F3
:10FAA00036C0C05EDE4F288139814A815B81C052F9
:10FAB000D1400894C108D108760100E010E0089414
:10FAC000C11CD11C0894E11CF11C011D111DE20E8A
:10FAD000F31E041F151F21BDBB27A52F942F832FB5
:10FAE00082BD2F5F3F4F4F4F5F4FF89A80B5DB01CC
:10FAF0008D93BD012E153F054007510761F7C05E8C
:10FB0000DE4F288339834A835B83C052D1409601FC
:10FB10002D5F3F4FFB01108204C080EC8A8322E0FE
:10FB200030E08BE18093C6008091C00086FFFCCF5F
:10FB30008091C00080648093C000C15DDE4FF88179
:10FB4000CF52D140F093C6008091C00086FFFCCF19
:10FB50008091C00080648093C000432F3093C60022
:10FB60008091C00086FFFCCF8091C00080648093AC
:10FB7000C000922F2093C6008091C00086FFFCCF6A
:10FB80008091C00080648093C0008EE08093C600A6
:10FB90008091C00086FFFCCF8091C000806480937C
:10FBA000C00065E1C15DDE4FE880CF52D1406E25D7
:10FBB00069276427FE01319610C090819093C6009A
:10FBC0008091C00086FFFCCF31968091C000806498
:10FBD0008093C0006927215030402115310569F715
:10FBE0006093C6008091C00086FFFCCF8091C0006A
:10FBF00080648093C00085B1805885B9772081F4F6
:10FC0000C15DDE4F0881CF52D1400F5FC15DDE4F35
:10FC10000883CF52D14090E0A0E0B0E00D941AF4F8
:10FC200027982F9880E090E020ED37E0F901319798
:10FC3000F1F7019684369105C9F700008091C00064
:10FC40008D7F8093C00081E180935700E895EE2777
:10FC5000FF270994FFCF90E00D941AF497FB092E2B
:10FC600007260AD077FD04D02ED006D000201AF443
:10FC7000709561957F4F0895F6F7909581959F4F08
:10FC80000895A1E21A2EAA1BBB1BFD010DC0AA1FDD
:10FC9000BB1FEE1FFF1FA217B307E407F50720F0F5
:10FCA000A21BB30BE40BF50B661F771F881F991F70
:10FCB0001A9469F760957095809590959B01AC01B9
:10FCC000BD01CF010895AA1BBB1B51E107C0AA1FAC
:10FCD000BB1FA617B70710F0A61BB70B881F991FED
:10FCE0005A95A9F780959095BC01CD010895F99991
:10FCF000FECF92BD81BDF89A992780B50895262F31
:10FD0000F999FECF1FBA92BD81BD20BD0FB6F89400
:0EFD1000FA9AF99A0FBE01960895F894FFCF63
:040000033000E000E9
:00000001FF